{
  "contractName": "FlashLoan",
  "abi": [
    {
      "inputs": [],
      "stateMutability": "nonpayable",
      "type": "constructor"
    },
    {
      "inputs": [],
      "name": "NotEnoughFunds",
      "type": "error"
    },
    {
      "inputs": [
        {
          "internalType": "address",
          "name": "_tokenBorrow",
          "type": "address"
        },
        {
          "internalType": "uint256",
          "name": "_amount",
          "type": "uint256"
        },
        {
          "internalType": "uint256",
          "name": "_direction",
          "type": "uint256"
        }
      ],
      "name": "FlashSwap",
      "outputs": [],
      "stateMutability": "nonpayable",
      "type": "function"
    },
    {
      "inputs": [
        {
          "internalType": "address",
          "name": "_sender",
          "type": "address"
        },
        {
          "internalType": "uint256",
          "name": "_amount0",
          "type": "uint256"
        },
        {
          "internalType": "uint256",
          "name": "_amount1",
          "type": "uint256"
        },
        {
          "internalType": "bytes",
          "name": "_data",
          "type": "bytes"
        }
      ],
      "name": "pancakeCall",
      "outputs": [],
      "stateMutability": "nonpayable",
      "type": "function"
    }
  ],
  "bytecode": "0x60a060405234801561001057600080fd5b503373ffffffffffffffffffffffffffffffffffffffff1660808173ffffffffffffffffffffffffffffffffffffffff1660601b8152505060805160601c6121bd61006660003960006112fb01526121bd6000f3fe608060405234801561001057600080fd5b50600436106100365760003560e01c8063848008121461003b578063ec42131714610057575b600080fd5b61005560048036038101906100509190611997565b610073565b005b610071600480360381019061006c9190611948565b611423565b005b60003373ffffffffffffffffffffffffffffffffffffffff16630dfe16816040518163ffffffff1660e01b815260040160206040518083038186803b1580156100bb57600080fd5b505afa1580156100cf573d6000803e3d6000fd5b505050506040513d601f19601f820116820180604052508101906100f391906118d0565b905060003373ffffffffffffffffffffffffffffffffffffffff1663d21220a76040518163ffffffff1660e01b815260040160206040518083038186803b15801561013d57600080fd5b505afa158015610151573d6000803e3d6000fd5b505050506040513d601f19601f8201168201806040525081019061017591906118d0565b9050600073ca143ce32fe78f1f7019d7d551a6402fc5350c7373ffffffffffffffffffffffffffffffffffffffff1663e6a4390584846040518363ffffffff1660e01b81526004016101c8929190611c2e565b60206040518083038186803b1580156101e057600080fd5b505afa1580156101f4573d6000803e3d6000fd5b505050506040513d601f19601f8201168201806040525081019061021891906118d0565b90508073ffffffffffffffffffffffffffffffffffffffff163373ffffffffffffffffffffffffffffffffffffffff1614610288576040517f08c379a000000000000000000000000000000000000000000000000000000000815260040161027f90611cb7565b60405180910390fd5b3073ffffffffffffffffffffffffffffffffffffffff168873ffffffffffffffffffffffffffffffffffffffff16146102f6576040517f08c379a00000000000000000000000000000000000000000000000000000000081526004016102ed90611cd7565b60405180910390fd5b6000806000878781019061030a91906118f9565b925092509250600060016103e56003856103249190611edb565b61032e9190611eaa565b6103389190611e54565b9050600081846103489190611e54565b90506000831415610a2a578473ffffffffffffffffffffffffffffffffffffffff1663095ea7b37310ed43c718714eb63d5aa57b78b54704e256024e866040518363ffffffff1660e01b81526004016103a2929190611c57565b602060405180830381600087803b1580156103bc57600080fd5b505af11580156103d0573d6000803e3d6000fd5b505050506040513d601f19601f820116820180604052508101906103f49190611a58565b506060600267ffffffffffffffff811115610438577f4e487b7100000000000000000000000000000000000000000000000000000000600052604160045260246000fd5b6040519080825280602002602001820160405280156104665781602001602082028036833780820191505090505b50905085816000815181106104a4577f4e487b7100000000000000000000000000000000000000000000000000000000600052603260045260246000fd5b602002602001019073ffffffffffffffffffffffffffffffffffffffff16908173ffffffffffffffffffffffffffffffffffffffff168152505073bb4cdb9cbd36b01bd1cbaebf2de08d9173bc095c8160018151811061052d577f4e487b7100000000000000000000000000000000000000000000000000000000600052603260045260246000fd5b602002602001019073ffffffffffffffffffffffffffffffffffffffff16908173ffffffffffffffffffffffffffffffffffffffff16815250507310ed43c718714eb63d5aa57b78b54704e256024e73ffffffffffffffffffffffffffffffffffffffff166338ed17398660018430426040518663ffffffff1660e01b81526004016105bd959493929190611cf7565b600060405180830381600087803b1580156105d757600080fd5b505af11580156105eb573d6000803e3d6000fd5b505050506040513d6000823e3d601f19601f820116820180604052508101906106149190611a17565b5073bb4cdb9cbd36b01bd1cbaebf2de08d9173bc095c73ffffffffffffffffffffffffffffffffffffffff1663095ea7b373cf0febd3f17cef5b47b0cd257acf6025c5bff3b773bb4cdb9cbd36b01bd1cbaebf2de08d9173bc095c73ffffffffffffffffffffffffffffffffffffffff166370a08231306040518263ffffffff1660e01b81526004016106a79190611bea565b60206040518083038186803b1580156106bf57600080fd5b505afa1580156106d3573d6000803e3d6000fd5b505050506040513d601f19601f820116820180604052508101906106f79190611a81565b6040518363ffffffff1660e01b8152600401610714929190611c57565b602060405180830381600087803b15801561072e57600080fd5b505af1158015610742573d6000803e3d6000fd5b505050506040513d601f19601f820116820180604052508101906107669190611a58565b506060600267ffffffffffffffff8111156107aa577f4e487b7100000000000000000000000000000000000000000000000000000000600052604160045260246000fd5b6040519080825280602002602001820160405280156107d85781602001602082028036833780820191505090505b50905073bb4cdb9cbd36b01bd1cbaebf2de08d9173bc095c8160008151811061082a577f4e487b7100000000000000000000000000000000000000000000000000000000600052603260045260246000fd5b602002602001019073ffffffffffffffffffffffffffffffffffffffff16908173ffffffffffffffffffffffffffffffffffffffff1681525050868160018151811061089f577f4e487b7100000000000000000000000000000000000000000000000000000000600052603260045260246000fd5b602002602001019073ffffffffffffffffffffffffffffffffffffffff16908173ffffffffffffffffffffffffffffffffffffffff168152505073cf0febd3f17cef5b47b0cd257acf6025c5bff3b773ffffffffffffffffffffffffffffffffffffffff166338ed173973bb4cdb9cbd36b01bd1cbaebf2de08d9173bc095c73ffffffffffffffffffffffffffffffffffffffff166370a08231306040518263ffffffff1660e01b81526004016109569190611bea565b60206040518083038186803b15801561096e57600080fd5b505afa158015610982573d6000803e3d6000fd5b505050506040513d601f19601f820116820180604052508101906109a69190611a81565b60018430426040518663ffffffff1660e01b81526004016109cb959493929190611cf7565b600060405180830381600087803b1580156109e557600080fd5b505af11580156109f9573d6000803e3d6000fd5b505050506040513d6000823e3d601f19601f82011682018060405250810190610a229190611a17565b5050506110fd565b8473ffffffffffffffffffffffffffffffffffffffff1663095ea7b373cf0febd3f17cef5b47b0cd257acf6025c5bff3b7866040518363ffffffff1660e01b8152600401610a79929190611c57565b602060405180830381600087803b158015610a9357600080fd5b505af1158015610aa7573d6000803e3d6000fd5b505050506040513d601f19601f82011682018060405250810190610acb9190611a58565b506060600267ffffffffffffffff811115610b0f577f4e487b7100000000000000000000000000000000000000000000000000000000600052604160045260246000fd5b604051908082528060200260200182016040528015610b3d5781602001602082028036833780820191505090505b5090508581600081518110610b7b577f4e487b7100000000000000000000000000000000000000000000000000000000600052603260045260246000fd5b602002602001019073ffffffffffffffffffffffffffffffffffffffff16908173ffffffffffffffffffffffffffffffffffffffff168152505073bb4cdb9cbd36b01bd1cbaebf2de08d9173bc095c81600181518110610c04577f4e487b7100000000000000000000000000000000000000000000000000000000600052603260045260246000fd5b602002602001019073ffffffffffffffffffffffffffffffffffffffff16908173ffffffffffffffffffffffffffffffffffffffff168152505073cf0febd3f17cef5b47b0cd257acf6025c5bff3b773ffffffffffffffffffffffffffffffffffffffff166338ed17398660018430426040518663ffffffff1660e01b8152600401610c94959493929190611cf7565b600060405180830381600087803b158015610cae57600080fd5b505af1158015610cc2573d6000803e3d6000fd5b505050506040513d6000823e3d601f19601f82011682018060405250810190610ceb9190611a17565b5073bb4cdb9cbd36b01bd1cbaebf2de08d9173bc095c73ffffffffffffffffffffffffffffffffffffffff1663095ea7b37310ed43c718714eb63d5aa57b78b54704e256024e73bb4cdb9cbd36b01bd1cbaebf2de08d9173bc095c73ffffffffffffffffffffffffffffffffffffffff166370a08231306040518263ffffffff1660e01b8152600401610d7e9190611bea565b60206040518083038186803b158015610d9657600080fd5b505afa158015610daa573d6000803e3d6000fd5b505050506040513d601f19601f82011682018060405250810190610dce9190611a81565b6040518363ffffffff1660e01b8152600401610deb929190611c57565b602060405180830381600087803b158015610e0557600080fd5b505af1158015610e19573d6000803e3d6000fd5b505050506040513d601f19601f82011682018060405250810190610e3d9190611a58565b506060600267ffffffffffffffff811115610e81577f4e487b7100000000000000000000000000000000000000000000000000000000600052604160045260246000fd5b604051908082528060200260200182016040528015610eaf5781602001602082028036833780820191505090505b50905073bb4cdb9cbd36b01bd1cbaebf2de08d9173bc095c81600081518110610f01577f4e487b7100000000000000000000000000000000000000000000000000000000600052603260045260246000fd5b602002602001019073ffffffffffffffffffffffffffffffffffffffff16908173ffffffffffffffffffffffffffffffffffffffff16815250508681600181518110610f76577f4e487b7100000000000000000000000000000000000000000000000000000000600052603260045260246000fd5b602002602001019073ffffffffffffffffffffffffffffffffffffffff16908173ffffffffffffffffffffffffffffffffffffffff16815250507310ed43c718714eb63d5aa57b78b54704e256024e73ffffffffffffffffffffffffffffffffffffffff166338ed173973bb4cdb9cbd36b01bd1cbaebf2de08d9173bc095c73ffffffffffffffffffffffffffffffffffffffff166370a08231306040518263ffffffff1660e01b815260040161102d9190611bea565b60206040518083038186803b15801561104557600080fd5b505afa158015611059573d6000803e3d6000fd5b505050506040513d601f19601f8201168201806040525081019061107d9190611a81565b60018430426040518663ffffffff1660e01b81526004016110a2959493929190611cf7565b600060405180830381600087803b1580156110bc57600080fd5b505af11580156110d0573d6000803e3d6000fd5b505050506040513d6000823e3d601f19601f820116820180604052508101906110f99190611a17565b5050505b808573ffffffffffffffffffffffffffffffffffffffff166370a08231306040518263ffffffff1660e01b81526004016111379190611bea565b60206040518083038186803b15801561114f57600080fd5b505afa158015611163573d6000803e3d6000fd5b505050506040513d601f19601f820116820180604052508101906111879190611a81565b10156111bf576040517f81b5ad6800000000000000000000000000000000000000000000000000000000815260040160405180910390fd5b8473ffffffffffffffffffffffffffffffffffffffff1663a9059cbb87836040518363ffffffff1660e01b81526004016111fa929190611c57565b602060405180830381600087803b15801561121457600080fd5b505af1158015611228573d6000803e3d6000fd5b505050506040513d601f19601f8201168201806040525081019061124c9190611a58565b5060008573ffffffffffffffffffffffffffffffffffffffff166370a08231306040518263ffffffff1660e01b81526004016112889190611bea565b60206040518083038186803b1580156112a057600080fd5b505afa1580156112b4573d6000803e3d6000fd5b505050506040513d601f19601f820116820180604052508101906112d89190611a81565b14611414578473ffffffffffffffffffffffffffffffffffffffff1663a9059cbb7f00000000000000000000000000000000000000000000000000000000000000008773ffffffffffffffffffffffffffffffffffffffff166370a08231306040518263ffffffff1660e01b81526004016113539190611bea565b60206040518083038186803b15801561136b57600080fd5b505afa15801561137f573d6000803e3d6000fd5b505050506040513d601f19601f820116820180604052508101906113a39190611a81565b6040518363ffffffff1660e01b81526004016113c0929190611c05565b602060405180830381600087803b1580156113da57600080fd5b505af11580156113ee573d6000803e3d6000fd5b505050506040513d601f19601f820116820180604052508101906114129190611a58565b505b50505050505050505050505050565b600073ca143ce32fe78f1f7019d7d551a6402fc5350c7373ffffffffffffffffffffffffffffffffffffffff1663e6a439058573bb4cdb9cbd36b01bd1cbaebf2de08d9173bc095c6040518363ffffffff1660e01b8152600401611488929190611c2e565b60206040518083038186803b1580156114a057600080fd5b505afa1580156114b4573d6000803e3d6000fd5b505050506040513d601f19601f820116820180604052508101906114d891906118d0565b9050600073ffffffffffffffffffffffffffffffffffffffff168173ffffffffffffffffffffffffffffffffffffffff16141561154a576040517f08c379a000000000000000000000000000000000000000000000000000000000815260040161154190611cb7565b60405180910390fd5b60008173ffffffffffffffffffffffffffffffffffffffff16630dfe16816040518163ffffffff1660e01b815260040160206040518083038186803b15801561159257600080fd5b505afa1580156115a6573d6000803e3d6000fd5b505050506040513d601f19601f820116820180604052508101906115ca91906118d0565b905060008273ffffffffffffffffffffffffffffffffffffffff1663d21220a76040518163ffffffff1660e01b815260040160206040518083038186803b15801561161457600080fd5b505afa158015611628573d6000803e3d6000fd5b505050506040513d601f19601f8201168201806040525081019061164c91906118d0565b905060008273ffffffffffffffffffffffffffffffffffffffff168773ffffffffffffffffffffffffffffffffffffffff161461168a57600061168c565b855b905060008273ffffffffffffffffffffffffffffffffffffffff168873ffffffffffffffffffffffffffffffffffffffff16146116ca5760006116cc565b865b905060008888886040516020016116e593929190611c80565b60405160208183030381529060405290508573ffffffffffffffffffffffffffffffffffffffff1663022c0d9f848430856040518563ffffffff1660e01b81526004016117359493929190611d51565b600060405180830381600087803b15801561174f57600080fd5b505af1158015611763573d6000803e3d6000fd5b50505050505050505050505050565b600061178561178084611dc2565b611d9d565b905080838252602082019050828560208602820111156117a457600080fd5b60005b858110156117d457816117ba88826118bb565b8452602084019350602083019250506001810190506117a7565b5050509392505050565b6000813590506117ed8161212b565b92915050565b6000815190506118028161212b565b92915050565b60008135905061181781612142565b92915050565b600082601f83011261182e57600080fd5b815161183e848260208601611772565b91505092915050565b60008151905061185681612159565b92915050565b60008083601f84011261186e57600080fd5b8235905067ffffffffffffffff81111561188757600080fd5b60208301915083600182028301111561189f57600080fd5b9250929050565b6000813590506118b581612170565b92915050565b6000815190506118ca81612170565b92915050565b6000602082840312156118e257600080fd5b60006118f0848285016117f3565b91505092915050565b60008060006060848603121561190e57600080fd5b600061191c86828701611808565b935050602061192d868287016118a6565b925050604061193e868287016118a6565b9150509250925092565b60008060006060848603121561195d57600080fd5b600061196b868287016117de565b935050602061197c868287016118a6565b925050604061198d868287016118a6565b9150509250925092565b6000806000806000608086880312156119af57600080fd5b60006119bd888289016117de565b95505060206119ce888289016118a6565b94505060406119df888289016118a6565b935050606086013567ffffffffffffffff8111156119fc57600080fd5b611a088882890161185c565b92509250509295509295909350565b600060208284031215611a2957600080fd5b600082015167ffffffffffffffff811115611a4357600080fd5b611a4f8482850161181d565b91505092915050565b600060208284031215611a6a57600080fd5b6000611a7884828501611847565b91505092915050565b600060208284031215611a9357600080fd5b6000611aa1848285016118bb565b91505092915050565b6000611ab68383611ad1565b60208301905092915050565b611acb81611f8f565b82525050565b611ada81611f35565b82525050565b611ae981611f35565b82525050565b6000611afa82611dfe565b611b048185611e21565b9350611b0f83611dee565b8060005b83811015611b40578151611b278882611aaa565b9750611b3283611e14565b925050600181019050611b13565b5085935050505092915050565b6000611b5882611e09565b611b628185611e32565b9350611b72818560208601611fd7565b611b7b816120c8565b840191505092915050565b611b8f81611fa1565b82525050565b6000611ba2600583611e43565b9150611bad826120d9565b602082019050919050565b6000611bc5600783611e43565b9150611bd082612102565b602082019050919050565b611be481611f85565b82525050565b6000602082019050611bff6000830184611ae0565b92915050565b6000604082019050611c1a6000830185611ac2565b611c276020830184611bdb565b9392505050565b6000604082019050611c436000830185611ae0565b611c506020830184611ae0565b9392505050565b6000604082019050611c6c6000830185611ae0565b611c796020830184611bdb565b9392505050565b6000606082019050611c956000830186611ae0565b611ca26020830185611bdb565b611caf6040830184611bdb565b949350505050565b60006020820190508181036000830152611cd081611b95565b9050919050565b60006020820190508181036000830152611cf081611bb8565b9050919050565b600060a082019050611d0c6000830188611bdb565b611d196020830187611b86565b8181036040830152611d2b8186611aef565b9050611d3a6060830185611ae0565b611d476080830184611bdb565b9695505050505050565b6000608082019050611d666000830187611bdb565b611d736020830186611bdb565b611d806040830185611ae0565b8181036060830152611d928184611b4d565b905095945050505050565b6000611da7611db8565b9050611db3828261200a565b919050565b6000604051905090565b600067ffffffffffffffff821115611ddd57611ddc612099565b5b602082029050602081019050919050565b6000819050602082019050919050565b600081519050919050565b600081519050919050565b6000602082019050919050565b600082825260208201905092915050565b600082825260208201905092915050565b600082825260208201905092915050565b6000611e5f82611f85565b9150611e6a83611f85565b9250827fffffffffffffffffffffffffffffffffffffffffffffffffffffffffffffffff03821115611e9f57611e9e61203b565b5b828201905092915050565b6000611eb582611f85565b9150611ec083611f85565b925082611ed057611ecf61206a565b5b828204905092915050565b6000611ee682611f85565b9150611ef183611f85565b9250817fffffffffffffffffffffffffffffffffffffffffffffffffffffffffffffffff0483118215151615611f2a57611f2961203b565b5b828202905092915050565b6000611f4082611f65565b9050919050565b6000611f5282611f65565b9050919050565b60008115159050919050565b600073ffffffffffffffffffffffffffffffffffffffff82169050919050565b6000819050919050565b6000611f9a82611fb3565b9050919050565b6000611fac82611f85565b9050919050565b6000611fbe82611fc5565b9050919050565b6000611fd082611f65565b9050919050565b60005b83811015611ff5578082015181840152602081019050611fda565b83811115612004576000848401525b50505050565b612013826120c8565b810181811067ffffffffffffffff8211171561203257612031612099565b5b80604052505050565b7f4e487b7100000000000000000000000000000000000000000000000000000000600052601160045260246000fd5b7f4e487b7100000000000000000000000000000000000000000000000000000000600052601260045260246000fd5b7f4e487b7100000000000000000000000000000000000000000000000000000000600052604160045260246000fd5b6000601f19601f8301169050919050565b7f2170616972000000000000000000000000000000000000000000000000000000600082015250565b7f2173656e64657200000000000000000000000000000000000000000000000000600082015250565b61213481611f35565b811461213f57600080fd5b50565b61214b81611f47565b811461215657600080fd5b50565b61216281611f59565b811461216d57600080fd5b50565b61217981611f85565b811461218457600080fd5b5056fea264697066735822122070de09ce2b9a1162e1fcb8d2688093b14226e0171857759f9e0c7bbedd53fc9264736f6c63430008040033",
  "immutableReferences": {
    "19": [
      {
        "length": 32,
        "start": 4859
      }
    ]
  },
  "source": "// SPDX-License-Identifier: MIT\r\npragma solidity ^0.8.4;\r\n\r\nimport \"./libraries/PancakeInterfaces.sol\";\r\nimport \"./libraries/IBEP20.sol\";\r\n\r\ninterface IPancakeCallee {\r\n    function pancakeCall(\r\n        address sender,\r\n        uint256 amount0,\r\n        uint256 amount1,\r\n        bytes calldata data\r\n    ) external;\r\n}\r\n\r\ncontract FlashLoan is IPancakeCallee {\r\n    \r\n    address payable immutable owner;\r\n    address private constant WBNB = 0xbb4CdB9CBd36B01bD1cBaEBF2De08d9173bc095c;\r\n    address private constant FACTORY = 0xcA143Ce32Fe78f1f7019d7d551a6402fC5350c73;\r\n    address private constant pancakeRouter = 0x10ED43C718714eb63d5aA57B78B54704E256024E;\r\n    address private constant apeswapRouter = 0xcF0feBd3f17CEf5b47b0cD257aCf6025c5BFf3b7;\r\n\r\n    error NotEnoughFunds();\r\n\r\n    constructor(){\r\n        owner = payable(msg.sender);\r\n    }\r\n    \r\n    function FlashSwap(address _tokenBorrow, uint _amount, uint _direction ) external {\r\n\r\n        address pair = IPancakeFactory(FACTORY).getPair(_tokenBorrow, WBNB);\r\n        require(pair != address(0), \"!pair\");\r\n    \r\n        address token0 = IPancakePair(pair).token0();\r\n        address token1 = IPancakePair(pair).token1();\r\n        uint amount0Out = _tokenBorrow == token0 ? _amount : 0;\r\n        uint amount1Out = _tokenBorrow == token1 ? _amount : 0;\r\n    \r\n        // need to pass some data to trigger PancakeCall\r\n        bytes memory data = abi.encode(_tokenBorrow, _amount, _direction);\r\n    \r\n        IPancakePair(pair).swap(amount0Out, amount1Out, address(this), data);\r\n    }\r\n\r\n    // called by pair contract\r\n    function pancakeCall(\r\n        address _sender,\r\n        uint _amount0,\r\n        uint _amount1,\r\n        bytes calldata _data\r\n        ) external override {\r\n\r\n            address token0 = IPancakePair(msg.sender).token0();\r\n            address token1 = IPancakePair(msg.sender).token1();\r\n            address pair = IPancakeFactory(FACTORY).getPair(token0, token1);\r\n            require(msg.sender == pair, \"!pair\");\r\n            require(_sender == address(this), \"!sender\");\r\n        \r\n            (address tokenBorrow, uint amount, uint direction) = abi.decode(_data, (address, uint, uint));\r\n        \r\n            // about 0.3%\r\n            uint fee = ((amount * 3) / 997) + 1;\r\n            uint amountToRepay = amount + fee;\r\n\r\n            //do arbitrage here\r\n            if(direction == 0 ){\r\n\r\n                //swaping flashloaned BUSD for WBNB on Pancakeswap\r\n                IBEP20(tokenBorrow).approve(pancakeRouter, amount);\r\n                address[] memory path1;\r\n                path1 = new address[](2) ;\r\n                path1[0] = tokenBorrow;\r\n                path1[1] = WBNB;  \r\n                IPancakeRouter02(pancakeRouter).swapExactTokensForTokens(\r\n                    amount,\r\n                    1,//we can change it to avoid frontrunning\r\n                    path1,\r\n                    address(this),\r\n                    block.timestamp\r\n                    );\r\n\r\n                //swaping WBNB for BUSD on Apeswap\r\n                IBEP20(WBNB).approve(apeswapRouter, IBEP20(WBNB).balanceOf(address(this)));\r\n                address[] memory path2;\r\n                path2 = new address[](2) ;\r\n                path2[0] = WBNB;\r\n                path2[1] = tokenBorrow;\r\n                IPancakeRouter02(apeswapRouter).swapExactTokensForTokens(\r\n                    IBEP20(WBNB).balanceOf(address(this)), \r\n                    1, \r\n                    path2, \r\n                    address(this), \r\n                    block.timestamp\r\n                    );\r\n\r\n            }else{\r\n                //swaping BUSD for WBNB on Apeswap\r\n                IBEP20(tokenBorrow).approve(apeswapRouter, amount);\r\n                address[] memory path1;\r\n                path1 = new address[](2) ;\r\n                path1[0] = tokenBorrow;\r\n                path1[1] = WBNB;\r\n                IPancakeRouter02(apeswapRouter).swapExactTokensForTokens(\r\n                    amount, \r\n                    1, \r\n                    path1, \r\n                    address(this), \r\n                    block.timestamp\r\n                    );\r\n\r\n                //swaping WBNB for BUSD on PancakeSwap\r\n                IBEP20(WBNB).approve(pancakeRouter, IBEP20(WBNB).balanceOf(address(this)));\r\n                address[] memory path2;\r\n                path2 = new address[](2) ;\r\n                path2[0] = WBNB;\r\n                path2[1] = tokenBorrow;  \r\n                IPancakeRouter02(pancakeRouter).swapExactTokensForTokens(\r\n                    IBEP20(WBNB).balanceOf(address(this)),\r\n                    1,\r\n                    path2,\r\n                    address(this),\r\n                    block.timestamp\r\n                    );\r\n            }\r\n\r\n        if(IBEP20(tokenBorrow).balanceOf(address(this)) < amountToRepay) revert NotEnoughFunds();\r\n        IBEP20(tokenBorrow).transfer(pair, amountToRepay);\r\n\r\n        if(IBEP20(tokenBorrow).balanceOf(address(this)) != 0) \r\n        IBEP20(tokenBorrow).transfer(owner,IBEP20(tokenBorrow).balanceOf(address(this)));\r\n    }\r\n\r\n}\r\n",
  "sourcePath": "C:\\Users\\adity\\FlashloanBinance\\contracts\\FlashLoan.sol",
  "compiler": {
    "name": "solc",
    "version": "0.8.4+commit.c7e474f2.Emscripten.clang"
  },
  "schemaVersion": "3.4.9",
  "updatedAt": "2022-10-12T13:54:33.140Z",
  "devdoc": {
    "kind": "dev",
    "methods": {},
    "version": 1
  },
  "userdoc": {
    "kind": "user",
    "methods": {},
    "version": 1
  }
}